:020000040800F2
:10000000005000209D360008793300088133000835
:10001000893300089133000899330008000000007C
:1000200000000000000000000000000041AC0008DB
:10003000A13300080000000021AE000869AE0008EE
:10004000E5360008E5360008E5360008E536000824
:10005000E5360008E5360008E5360008E536000814
:10006000E5360008E5360008E5360008E536000804
:10007000E5360008E5360008E5360008E5360008F4
:10008000E5360008E5360008E5360008E5360008E4
:10009000E5360008E5360008E5360008E5360008D4
:1000A000E5360008E5360008E5360008E5360008C4
:1000B000E5360008AD330008E5360008E5360008EF
:1000C000E5360008E5360008E5360008E5360008A4
:1000D000E5360008E5360008E5360008E536000894
:1000E000E5360008E5360008E536000800000000A7
:1000F0000000000000000000000000000000000000
:0C01000000000000000000005FF808F1A3
:1001100010B5054C237833B9044B13B10448AFF341
:1001200000800123237010BD200200200000000089
:100130009CE5000808B5034B1BB103490348AFF326
:10014000008008BD00000000240200209CE500089B
:10015000034613F8012B002AFBD1181A0138704707
:1001600081F0004102E000BF83F0004330B54FEA68
:1001700041044FEA430594EA050F08BF90EA020FD5
:100180001FBF54EA000C55EA020C7FEA645C7FEA68
:10019000655C00F0E2804FEA5454D4EB5555B8BF8B
:1001A0006D420CDD2C4480EA020281EA030382EAFC
:1001B000000083EA010180EA020281EA0303362D8E
:1001C00088BF30BD11F0004F4FEA01314FF4801C61
:1001D0004CEA113102D0404261EB410113F0004F73
:1001E0004FEA03334CEA133302D0524263EB43032A
:1001F00094EA050F00F0A780A4F10104D5F1200EC8
:100200000DDB02FA0EFC22FA05F2801841F1000122
:1002100003FA0EF2801843FA05F359410EE0A5F1F6
:1002200020050EF1200E012A03FA0EFC28BF4CF027
:10023000020C43FA05F3C01851EBE37101F00045DD
:1002400007D54FF0000EDCF1000C7EEB00006EEBEA
:100250000101B1F5801F1BD3B1F5001F0CD3490874
:100260005FEA30004FEA3C0C04F101044FEA4452CB
:1002700012F5800F80F09A80BCF1004F08BF5FEA52
:10028000500C50F1000041EB045141EA050130BD32
:100290005FEA4C0C404141EB0101013C28BFB1F544
:1002A000801FE9D291F0000F04BF01460020B1FA8F
:1002B00081F308BF2033A3F10B03B3F120020CDA62
:1002C0000C3208DD02F1140CC2F10C0201FA0CF040
:1002D00021FA02F10CE002F11402D8BFC2F1200CA5
:1002E00001FA02F120FA0CFCDCBF41EA0C0190405B
:1002F000E41AA2BF01EB0451294330BD6FEA0404A4
:100300001F3C1CDA0C340EDC04F11404C4F120028E
:1003100020FA04F001FA02F340EA030021FA04F3A0
:1003200045EA030130BDC4F10C04C4F1200220FAF7
:1003300002F001FA04F340EA0300294630BD21FA35
:1003400004F0294630BD94F0000F83F4801306BFFB
:1003500081F480110134013D4EE77FEA645C18BFEF
:100360007FEA655C29D094EA050F08BF90EA020F86
:1003700005D054EA000C04BF1946104630BD91EA7E
:10038000030F1EBF0021002030BD5FEA545C05D181
:100390004000494128BF41F0004130BD14F58004C0
:1003A0003CBF01F5801130BD01F0004545F0FE4134
:1003B00041F470014FF0000030BD7FEA645C1ABF69
:1003C000194610467FEA655C1CBF0B46024650EAA0
:1003D000013406BF52EA033591EA030F41F40021CC
:1003E00030BD00BF90F0000F04BF0021704730B552
:1003F0004FF4806404F132044FF000054FF0000127
:1004000050E700BF90F0000F04BF0021704730B5E7
:100410004FF4806404F1320410F0004548BF4042BC
:100420004FF000013EE700BF42004FEAE2014FEA11
:1004300031014FEA02701FBF12F07F4393F07F4FEC
:1004400081F06051704732F07F4208BF704793F0EF
:100450007F4F04BF41F40021704730B54FF4607402
:1004600001F0004521F000411CE700BF50EA010205
:1004700008BF704730B54FF000050AE050EA0102AE
:1004800008BF704730B511F0004502D5404261EB1E
:1004900041014FF4806404F132045FEA915C3FF45F
:1004A000D8AE4FF003025FEADC0C18BF03325FEAFC
:1004B000DC0C18BF033202EBDC02C2F1200300FAAD
:1004C00003FC20FA02F001FA03FE40EA0E0021FAD2
:1004D00002F11444BDE600BF70B54FF0FF0C4CF4C0
:1004E000E06C1CEA11541DBF1CEA135594EA0C0F72
:1004F00095EA0C0F00F0DEF82C4481EA030621EAAD
:100500004C5123EA4C5350EA013518BF52EA0335E7
:1005100041F4801143F4801338D0A0FB02CE4FF099
:100520000005E1FB02E506F00042E0FB03E54FF0C9
:100530000006E1FB03569CF0000F18BF4EF0010EC1
:10054000A4F1FF04B6F5007F64F5407404D25FEABD
:100550004E0E6D4146EB060642EAC62141EA555170
:100560004FEAC52040EA5E504FEACE2EB4F1FD0CB2
:1005700088BFBCF5E06F1ED8BEF1004F08BF5FEA30
:10058000500E50F1000041EB045170BD06F00046E2
:1005900046EA010140EA020081EA0301B4EB5C048F
:1005A000C2BFD4EB0C0541EA045170BD41F4801187
:1005B0004FF0000E013C00F3AB8014F1360FDEBFAC
:1005C000002001F0004170BDC4F10004203C35DA88
:1005D0000C341BDC04F11404C4F1200500FA05F30B
:1005E00020FA04F001FA05F240EA020001F00042AC
:1005F00021F0004110EBD37021FA04F642EB060122
:100600005EEA430E08BF20EAD37070BDC4F10C044B
:10061000C4F1200500FA04F320FA05F001FA04F20F
:1006200040EA020001F0004110EBD37041F10001FB
:100630005EEA430E08BF20EAD37070BDC4F1200506
:1006400000FA05F24EEA020E20FA04F301FA05F26E
:1006500043EA020321FA04F001F0004121FA04F216
:1006600020EA020000EBD3705EEA430E08BF20EAE6
:10067000D37070BD94F0000F0FD101F00046400020
:1006800041EB010111F4801F08BF013CF7D041EAA2
:10069000060195F0000F18BF704703F000465200A6
:1006A00043EB030313F4801F08BF013DF7D043EA77
:1006B0000603704794EA0C0F0CEA135518BF95EA2D
:1006C0000C0F0CD050EA410618BF52EA4306D1D1B4
:1006D00081EA030101F000414FF0000070BD50EAD3
:1006E000410606BF1046194652EA430619D094EA5D
:1006F0000C0F02D150EA013613D195EA0C0F05D147
:1007000052EA03361CBF104619460AD181EA03019A
:1007100001F0004141F0FE4141F470014FF0000052
:1007200070BD41F0FE4141F4780170BD70B54FF0ED
:10073000FF0C4CF4E06C1CEA11541DBF1CEA13556D
:1007400094EA0C0F95EA0C0F00F0A7F8A4EB05044F
:1007500081EA030E52EA03354FEA013100F0888046
:100760004FEA03334FF0805545EA131343EA12630F
:100770004FEA022245EA111545EA10654FEA0026C4
:100780000EF000419D4208BF964244F1FD0404F57D
:10079000407402D25B084FEA3202B61A65EB0305D9
:1007A0005B084FEA32024FF480104FF4002CB6EB96
:1007B000020E75EB030E22BFB61A754640EA0C0016
:1007C0005B084FEA3202B6EB020E75EB030E22BF56
:1007D000B61A754640EA5C005B084FEA3202B6EB97
:1007E000020E75EB030E22BFB61A754640EA9C0056
:1007F0005B084FEA3202B6EB020E75EB030E22BF26
:10080000B61A754640EADC0055EA060E18D04FEAE3
:10081000051545EA16754FEA06164FEAC30343EA83
:1008200052734FEAC2025FEA1C1CC0D111F4801F50
:100830000BD141EA00014FF000004FF0004CB6E749
:1008400011F4801F04BF01430020B4F1FD0C88BFE8
:10085000BCF5E06F3FF6AFAEB5EB030C04BFB6EBF3
:10086000020C5FEA500C50F1000041EB045170BDE6
:100870000EF0004E4EEA113114EB5C04C2BFD4EB13
:100880000C0541EA045170BD41F480114FF0000E97
:10089000013C90E645EA060E8DE60CEA135594EA13
:1008A0000C0F08BF95EA0C0F3FF43BAF94EA0C0F16
:1008B0000AD150EA01347FF434AF95EA0C0F7FF48B
:1008C00025AF104619462CE795EA0C0F06D152EADF
:1008D00003353FF4FDAE1046194622E750EA4106C3
:1008E00018BF52EA43067FF4C5AE50EA41047FF4D4
:1008F0000DAF52EA43057FF4EBAE12E74FF0FF3C39
:1009000006E000BF4FF0010C02E000BF4FF0010C09
:100910004DF804CD4FEA410C7FEA6C5C4FEA430C82
:1009200018BF7FEA6C5C1BD001B050EA410C0CBFD1
:1009300052EA430C91EA030F02BF90EA020F002033
:10094000704710F1000F91EA030F58BF994208BF9A
:1009500090422CBFD8176FEAE37040F00100704757
:100960004FEA410C7FEA6C5C02D150EA013C07D1AE
:100970004FEA430C7FEA6C5CD6D152EA033CD3D0F9
:100980005DF8040B704700BF8446104662468C46F3
:100990001946634600E000BF01B5FFF7B7FF002826
:1009A00048BF10F1000F01BD4DF808EDFFF7F4FF4F
:1009B0000CBF012000205DF808FB00BF4DF808EDDA
:1009C000FFF7EAFF34BF012000205DF808FB00BFFD
:1009D0004DF808EDFFF7E0FF94BF012000205DF81F
:1009E00008FB00BF4DF808EDFFF7CEFF94BF0120D4
:1009F00000205DF808FB00BF4DF808EDFFF7C4FFCD
:100A000034BF012000205DF808FB00BF4FEA410C15
:100A10007FEA6C5C02D150EA013C0AD14FEA430CF8
:100A20007FEA6C5C02D152EA033C02D14FF0000035
:100A300070474FF0010070474FEA410212F5001273
:100A400015D211D56FF47873B3EB625212D94FEA15
:100A5000C12343F0004343EA505311F0004F23FAFF
:100A600002F018BF404270474FF00000704750EA54
:100A7000013005D111F0004008BF6FF00040704711
:100A80004FF00000704700BF4FEA4102B2F1E0436F
:100A900024BFB3F5001CDCF1FE5C0DD901F0004C65
:100AA0004FEAC0024CEA5070B2F1004F40EB8300B5
:100AB00008BF20F00100704711F0804F21D113F1E1
:100AC0003872BCBF01F00040704741F480114FEA1A
:100AD0005252C2F11802C2F1200C10FA0CF320FAA3
:100AE00002F018BF40F001004FEAC1234FEAD323C0
:100AF00003FA0CFC40EA0C0023FA02F34FEA43032A
:100B0000CCE77FEA625307D150EA01331EBF4FF0B2
:100B1000FE4040F44000704701F0004040F0FE40CD
:100B200040F40000704700BF80F0004002E000BFCA
:100B300081F0004142001FBF5FEA410392EA030FC8
:100B40007FEA226C7FEA236C6AD04FEA1262D2EB12
:100B50001363C1BFD218414048404140B8BF5B4217
:100B6000192B88BF704710F0004F40F4000020F0B0
:100B70007F4018BF404211F0004F41F4000121F0C6
:100B80007F4118BF494292EA030F3FD0A2F1010210
:100B900041FA03FC10EB0C00C3F1200301FA03F14E
:100BA00000F0004302D5494260EB4000B0F5000F71
:100BB00013D3B0F1807F06D340084FEA310102F130
:100BC0000102FE2A51D2B1F1004F40EBC25008BFE2
:100BD00020F0010040EA03007047490040EB0000AC
:100BE000013A28BFB0F5000FEDD2B0FA80FCACF1AD
:100BF000080CB2EB0C0200FA0CF0AABF00EBC250DA
:100C000052421843BCBFD0401843704792F0000FC7
:100C100081F4000106BF80F400000132013BB5E71A
:100C20004FEA41037FEA226C18BF7FEA236C21D090
:100C300092EA030F04D092F0000F08BF08467047F5
:100C400090EA010F1CBF0020704712F07F4F04D1C3
:100C5000400028BF40F00040704712F100723CBFD6
:100C600000F50000704700F0004343F0FE4040F400
:100C7000000070477FEA226216BF08467FEA2363BE
:100C80000146420206BF5FEA412390EA010F40F4A9
:100C9000800070474FF0000304E000BF10F00043F5
:100CA00048BF40425FEA000C08BF704743F09643DC
:100CB00001464FF000001CE050EA010208BF7047F7
:100CC0004FF000030AE000BF50EA010208BF70477E
:100CD00011F0004302D5404261EB41015FEA010C93
:100CE00002BF84460146002043F0B64308BFA3F18B
:100CF0008053A3F50003BCFA8CF2083AA3EBC2536D
:100D000010DB01FA02FC634400FA02FCC2F120028B
:100D1000BCF1004F20FA02F243EB020008BF20F0C2
:100D20000100704702F1200201FA02FCC2F1200228
:100D300050EA4C0021FA02F243EB020008BF20EA1D
:100D4000DC7070474FF0FF0C1CEAD0521EBF1CEA4B
:100D5000D15392EA0C0F93EA0C0F6FD01A4480EA39
:100D6000010C400218BF5FEA41211ED04FF0006322
:100D700043EA501043EA5111A0FB01310CF000404E
:100D8000B1F5000F3EBF490041EAD3715B0040EA74
:100D9000010062F17F02FD2A1DD8B3F1004F40EB44
:100DA000C25008BF20F00100704790F0000F0CF017
:100DB000004C08BF49024CEA502040EA51207F3ADB
:100DC000C2BFD2F1FF0340EAC250704740F40000B6
:100DD0004FF00003013A5DDC12F1190FDCBF00F0A7
:100DE00000407047C2F10002410021FA02F1C2F155
:100DF000200200FA02FC5FEA310040F1000053EAF1
:100E00004C0308BF20EADC70704792F0000F00F03E
:100E1000004C02BF400010F4000F013AF9D040EA44
:100E20000C0093F0000F01F0004C02BF490011F4D8
:100E3000000F013BF9D041EA0C018FE70CEAD153D6
:100E400092EA0C0F18BF93EA0C0F0AD030F0004C56
:100E500018BF31F0004CD8D180EA010000F000400A
:100E6000704790F0000F17BF90F0004F084691F0C8
:100E7000000F91F0004F14D092EA0C0F01D1420202
:100E80000FD193EA0C0F03D14B0218BF084608D1CB
:100E900080EA010000F0004040F0FE4040F4000015
:100EA000704740F0FE4040F4400070474FF0FF0CA8
:100EB0001CEAD0521EBF1CEAD15392EA0C0F93EAEF
:100EC0000C0F69D0A2EB030280EA010C49024FEA41
:100ED000402037D04FF0805343EA111143EA1013FA
:100EE0000CF000408B4238BF5B0042F17D024FF4B2
:100EF000000C8B4224BF5B1A40EA0C00B3EB510F8D
:100F000024BFA3EB510340EA5C00B3EB910F24BF75
:100F1000A3EB910340EA9C00B3EBD10F24BFA3EBFA
:100F2000D10340EADC001B0118BF5FEA1C1CE0D1C2
:100F3000FD2A3FF650AF8B4240EBC25008BF20F075
:100F4000010070470CF0004C4CEA50207F32C2BFC9
:100F5000D2F1FF0340EAC250704740F400004FF066
:100F60000003013A37E792F0000F00F0004C02BF97
:100F7000400010F4000F013AF9D040EA0C0093F061
:100F8000000F01F0004C02BF490011F4000F013BBB
:100F9000F9D041EA0C0195E70CEAD15392EA0C0F23
:100FA00008D142027FF47DAF93EA0C0F7FF470AF5B
:100FB000084676E793EA0C0F04D14B023FF44CAF9E
:100FC00008466EE730F0004C18BF31F0004CCAD133
:100FD00030F000427FF45CAF31F000437FF43CAF6F
:100FE0005FE700BF4FEA4002B2F1FE4F0FD34FF070
:100FF0009E03B3EB12620DD94FEA002343F0004386
:1010000010F0004F23FA02F018BF404270474FF033
:101010000000704712F1610F01D1420205D110F0BA
:10102000004008BF6FF0004070474FF0000070476D
:1010300080B483B000AF244B1B68234A43F0040301
:101040001360224B1B68214A23F0F00313601F4BEF
:101050001E4A1B6813601E4B1B681D4A43F4602325
:101060001360194B1B68184A43F400731360194B43
:101070001B68184A43F018031360174B164A1B6885
:101080001360164B1B68154A43F001031360104BA5
:101090001B680F4A43F00103136000237B6002E0EA
:1010A0007B6801337B607B6842F20F729342F7DD0D
:1010B000074B1B68064A43F00103136000BF0C375F
:1010C000BD4680BC704700BF1810024000080140B8
:1010D00008240140102401402C2401403424014004
:1010E00080B400AF0C4B1B680B4A43F00103136044
:1010F000094B1B68084A43F48003136000BF074B89
:101100001B6803F00203002BF9D0054B1B689BB250
:101110001846BD4680BC70470824014000240140A9
:101120004C24014000000000B0B584B000AFFFF7D0
:10113000D7FF0346FB81FB891846FFF763F93CA301
:10114000D3E90023FFF7C8F902460B4610461946BB
:10115000FFF79AFC034640491846FFF7A7FE0346EF
:10116000BB60B868FFF760F902460B4630A1D1E9D1
:101170000001FEF7F9FF02460B46104619462EA362
:10118000D3E90023FFF7A8F902460B4614461D4693
:10119000B868FFF749F902460B4620462946FFF793
:1011A000C5FA02460B4610461946FFF76DFC03468A
:1011B0007B602A497868FFF779FE03461846FFF7F7
:1011C00033F902460B46104619460CF0FBFF1CA3F0
:1011D000D3E90023FFF7AAFA02460B461046194648
:1011E00019A3D3E90023FEF7C1FF02460B464FF0D7
:1011F00000001B49FFF79AFA02460B4610461946B3
:10120000FFF742FC03463B603868FFF70DF910A377
:10121000D3E90023FEF7A8FF02460B461046194605
:10122000FFF732FC034618461037BD46B0BD00BF7D
:101230006666666666660A40000000000088C34075
:10124000000000000068AA4083DBB5DCE1796B3F59
:10125000666666666612714000F07F4500401C4677
:101260000000F03F80B500AF00224FF480510448E9
:1012700002F0F4FC012002F069FA00BF80BD00BF5B
:10128000000C014080B500AF01224FF480510448AA
:1012900002F0E4FC012002F059FA00BF80BD00BF5B
:1012A000000C014080B582B000AF0346FB7100BF67
:1012B000084B1B689B6803F00203022BF8D1F91D51
:1012C00064230122034803F091F900BF0837BD46AB
:1012D00080BD00BF5025002080B582B000AF78608F
:1012E0000B467B8000BF084B1B689B6803F0020322
:1012F000022BF8D17A8864237968034803F076F9E1
:1013000000BF0837BD4680BD5025002080B584B0A1
:1013100002AFFF23FB7100BF094B1B689B6803F002
:101320000203022BF8D1BA1DF91D64230093012397
:10133000034803F09FFABB7918460837BD4680BDC5
:101340005025002080B582B000AF7860FFF7DEFF47
:1013500003461A467B681A7000BF0837BD4680BD39
:1013600080B582B000AF0A4B4FF4FA721A80FFF7D3
:10137000CDFF0346FB71FB79FF2B03D0044B1B8889
:10138000002BF4D1FB7918460837BD4680BD00BF5D
:101390003E02002080B584B000AF41F6FF73FB60D1
:1013A000FFF770FF0023BB6005E0FF20FFF77AFF27
:1013B000BB680133BB60BB68092BF6DDFFF752FF4A
:1013C00040233B7000237B700023BB700023FB7025
:1013D00000233B7195237B713B4606211846FFF79E
:1013E0007BFF02E0FB68013BFB60FFF78FFF0346DA
:1013F000012B02D0FB68002BF4D1FFF743FFFF2045
:10140000FFF750FF034B01221A7000BF1037BD4693
:1014100080BD00BF4102002080B400AF034B00221A
:101420001A7000BFBD4680BC704700BF410200205B
:1014300080B400AF024B1B781846BD4680BC704795
:101440004102002080B584B000AF78603960134B52
:10145000C8221A80FFF75AFF0346FB73FB7BFF2B62
:1014600003D10E4B1B88002BF4D1FB7BFE2B01D04C
:1014700000230FE07B685A1C7A601846FFF762FF72
:101480003B685A1E3A60002BF4D1FFF73FFFFFF78D
:101490003DFF012318461037BD4680BD3C020020A9
:1014A00080B584B000AF78600B46FB700023BB733F
:1014B000FFF756FF0346FF2B01D000232FE0FB78F8
:1014C0001846FFF7EFFEFB78FD2B20D04FF400719C
:1014D0007868FFF701FFFFF719FFFFF717FF0BE031
:1014E000FFF714FF0346FB73FB7B03F01F03052B81
:1014F00006D0BB7B0133BB73BB7B402BF0D900E034
:1015000000BF00BFFFF702FF0346002BFAD0FB7BB2
:1015100003F01F03052B01D1012300E0002318462F
:101520001037BD4680BD80B584B000AF034639603A
:10153000FB71FFF715FF0346FF2B01D0FF2342E0AD
:10154000FB791846FFF7AEFE3B681B0EDBB2184670
:10155000FFF7A8FE3B681B0CDBB21846FFF7A2FEA4
:101560003B681B0ADBB21846FFF79CFE3B68DBB208
:101570001846FFF797FEFB79402B02D19523FB73AA
:1015800007E0FB79482B02D18723FB7301E001239D
:10159000FB73FB7B1846FFF785FEFB794C2B01D1D3
:1015A000FFF7B4FE0A23BB73FFF7B0FE03467B735D
:1015B00097F90D30002B05DABB7B013BBB73BB7B7E
:1015C000002BF1D17B7B18461037BD4680BD000053
:1015D00090B585B000AF0346FB71FB79002B01D0BD
:1015E0000123D1E06A4B1B78DBB203F00203002B2E
:1015F00003D0674B1B78DBB2C6E0FFF7CBFEFFF7EB
:1016000031FE0023BB7300214020FFF78CFF03460F
:10161000012B40F0A1805F4B4FF47A721A804FF497
:10162000D5714820FFF77FFF0346012B55D10023DA
:10163000FB730CE0FC7BFFF769FE03461A4604F1DE
:1016400010033B4403F8082CFB7B0133FB73FB7B4B
:10165000032BEFD9BB7A012B7ED1FB7AAA2B7BD14E
:1016600000217720FFF75FFF0346012B07D84FF0DB
:1016700080416920FFF757FF0346002B04D0454BFC
:101680001B88002BECD100E000BF424B1B88002BD5
:1016900062D000217A20FFF746FF0346002B5BD182
:1016A0000023FB730CE0FC7BFFF730FE03461A4679
:1016B00004F110033B4403F8082CFB7B0133FB735C
:1016C000FB7B032BEFD93B7A03F04003002B01D0C7
:1016D0000C2300E00423BB733EE000217720FFF7DA
:1016E00022FF0346012B08D800216920FFF71BFFCA
:1016F0000346012B01D8022300E00123BB73BB7B0F
:10170000022B0ED100217720FFF70DFF0346012B9E
:101710000ED800216920FFF706FF0346002B07D1F2
:101720000CE000214120FFF7FEFE0346002B04D011
:10173000184B1B88002BE2D100E000BF154B1B8823
:10174000002B07D04FF400715020FFF7ECFE03464A
:10175000002B01D00023BB730F4ABB7B1370FFF734
:1017600091FDFFF7D3FDBB7B002B08D0084B1B7806
:10177000DBB223F00103DAB2054B1A7001E0FFF788
:101780004BFE034B1B78DBB218461437BD4690BDA9
:10179000000000203C0200204002002080B483B002
:1017A00000AF0346FB71FB79002B01D0012302E05F
:1017B000034B1B78DBB218460C37BD4680BC704724
:1017C0000000002080B584B000AFB9607A603B6053
:1017D0000346FB73FB7B002B02D13B68002B01D13E
:1017E000042351E02A4B1B78DBB203F00103002BEA
:1017F00001D0032348E0274B1B7803F00403002BA0
:1018000002D17B685B027B60FFF72CFD3B68012BFC
:1018100011D179685120FFF786FE0346002B29D1AC
:101820004FF40071B868FFF70DFE0346002B21D07E
:1018300000233B601EE079685220FFF774FE0346E8
:10184000002B17D14FF40071B868FFF7FBFD03467A
:10185000002B0AD0BB6803F50073BB603B68013BFB
:101860003B603B68002BEDD100E000BF00214C2025
:10187000FFF759FEFFF706FDFFF748FD3B68002B19
:1018800014BF01230023DBB218461037BD4680BDCC
:10189000000000204002002080B584B000AFB96095
:1018A0007A603B600346FB73FB7B002B02D13B68F5
:1018B000002B01D104236BE0374B1B78DBB203F024
:1018C0000103002B01D0032362E0334B1B78DBB212
:1018D00003F00403002B01D0022359E02F4B1B78A7
:1018E00003F00403002B02D17B685B027B60FFF7EF
:1018F000B9FC3B68012B10D179685820FFF713FE23
:101900000346002B3AD1FE21B868FFF7C9FD034614
:10191000002B33D000233B6030E0204B1B7803F0DA
:101920000203002B07D000217720FFF7FCFD396868
:101930005720FFF7F8FD79685920FFF7F4FD0346BB
:10194000002B1BD1FC21B868FFF7AAFD0346002B32
:101950000AD0BB6803F50073BB603B68013B3B608A
:101960003B68002BEED100E000BFFD210020FFF717
:1019700097FD0346002B01D101233B60FFF782FC5A
:10198000FFF7C4FC3B68002B14BF01230023DBB22C
:1019900018461037BD4680BD0000002040020020E0
:1019A00090B58BB000AF03463A60FB710B46BB713C
:1019B0003B683B62FB79002B01D0042313E1012338
:1019C00087F82730BB79052B24D13B6A1B78022B83
:1019D00012D0022B1ADC002B02D0012B06D015E00E
:1019E000FFF71AFD002387F82730FAE0FFF7D2FC53
:1019F000002387F82730F4E03B6A5C1CFFF718FDF2
:101A000003462370002387F82730EAE0042387F891
:101A10002730E6E0764B1B78DBB203F00103002BA6
:101A200001D00323DFE0FFF71DFCBB790D2B00F293
:101A3000C98001A252F823F02F1B0008711A000878
:101A40001F1B0008C51B0008C51B0008C51B00089C
:101A5000C51B0008C51B0008C51B0008C51B0008E6
:101A6000C51B0008411B0008651B0008891B0008F6
:101A700000214920FFF757FD0346002B40F0A680C8
:101A800007F10C0310211846FFF7DCFC0346002B7E
:101A900000F09C803B7B9B09DBB2012B0DD17B7D51
:101AA0001A463B7D1B029BB213449BB20133FB835E
:101AB000FB8B9A023B681A602DE07B7C03F00F03DE
:101AC000DAB2BB7DDB09DBB21344DAB27B7D5B00AB
:101AD000DBB203F00603DBB21344DBB2023387F858
:101AE00026303B7D9B09DBB21A46FB7C9B009BB2F8
:101AF00013449AB2BB7C9B029BB203F440639BB23B
:101B000013449BB20133FB83FA8B97F82630093BD1
:101B10009A403B681A60002387F8273056E03B68FC
:101B20004FF400721A80002387F8273055E0FFF742
:101B300017FC0346FF2B4BD1002387F8273047E0E3
:101B400000214920FFF7EFFC0346002B42D1102172
:101B5000386AFFF777FC0346002B3BD0002387F859
:101B6000273037E000214A20FFF7DDFC0346002B39
:101B700032D11021386AFFF765FC0346002B2BD0C9
:101B8000002387F8273027E000217A20FFF7CBFCDD
:101B90000346002B16D1002387F826300BE03C6A61
:101BA000631C3B62FFF7B2FB0346237097F82630B5
:101BB000013387F8263097F82630032BEFD900231E
:101BC00087F82730042387F8273006E000BF04E0B9
:101BD00000BF02E000BF00E000BFFFF753FBFFF7CC
:101BE00095FB97F8273018462C37BD4690BD00BFAF
:101BF0000000002080B400AF0B4B1B6803F0800393
:101C0000002B0CD0094B0A4A1A60084B094A1A608B
:101C100000BF054B1B6803F08003002BF9D100BF08
:101C2000BD4680BC704700BF102002400420024027
:101C300023016745AB89EFCD80B400AF044B1B682F
:101C4000034A43F08003136000BFBD4680BC704769
:101C50001020024080B483B000AF786000BF134B07
:101C60001B6803F08003002BF9D1104B1B680F4A4F
:101C700043F0020313600E4A7B6813600B4B1B6832
:101C80000A4A43F04003136000BF0A4B1B6803F08D
:101C90000103002BF9D1054B1B68044A23F0020312
:101CA000136000BF0C37BD4680BC70471020024057
:101CB000142002400C20024080B483B000AF786052
:101CC0000B467B8000BF104B1B6803F08003002B8A
:101CD000F9D10D4B1B680C4A43F0010313607B687C
:101CE0007A881A8000BF094B1B6803F00103002BA0
:101CF000F9D1054B1B68044A23F00103136000BFB0
:101D00000C37BD4680BC7047102002400C200240BA
:101D100080B586B000AF786039601C4B1B681B4AE9
:101D200023F0070313603868FEF712FA0346013305
:101D30003B61FFF75FFF7868FFF78CFF00237B6153
:101D40001AE03A687B6913441B781AB27B69013345
:101D500039680B441B781BB21B021BB213431BB226
:101D6000FB817A687B691344FA8911461846FFF7AC
:101D7000A3FF7B6902337B617A693B699A42E0D3B6
:101D8000FFF75AFF00BF1837BD4680BD0020024054
:101D900080B489B000AFF860B9607A60FB68FB611D
:101DA0000023BB6124E0FB691B88FB82BA68BB6926
:101DB0001344FA8AD2B21A70FB8A1B0A99B2BB6921
:101DC0000133BA681344CAB21A70BA68BB691344C3
:101DD0001B78002B11D0BB690133BA6813441B7800
:101DE000002B0AD0FB690233FB61BB690233BB6184
:101DF0007B68013BBA699A42D5D37B68013BBA68DC
:101E0000134400221A7000BF2437BD4680BC7047BF
:101E100080B485B000AFF860B9607A60FB68064AAC
:101E20001A60BB68054A1A607B6880221A6000BF8E
:101E30001437BD4680BC704744020020E4020020F5
:101E400080B485B000AF78600023FB6002E0FB68DF
:101E50000133FB607B684FF4FA6202FB03F3FA681C
:101E60009A42F4D300BF00BF1437BD4680BC704710
:101E700080B483B000AF78600B46FB70FB78002B1A
:101E80000AD00D4B1B6801217A6801FA02F2114653
:101E9000094A0B4313600AE0074B1B6801217A686B
:101EA00001FA02F2D2431146034A0B40136000BF0D
:101EB0000C37BD4680BC70470C08014080B500AFB0
:101EC000174B1B68164A43F004031360154B1B683D
:101ED000144A03F070431360124B1A681149124BF5
:101EE00013430B6000210B20FFF7C2FF00210C20E1
:101EF000FFF7BEFF00210D20FFF7BAFF00210E20E3
:101F0000FFF7B6FF00210820FFF7B2FF00210920EC
:101F1000FFF7AEFF00210A20FFF7AAFF00BF80BD38
:101F200018100240040801401111110180B500AFE2
:101F300001210A20FFF79CFF00210A20FFF798FFEC
:101F400000BF80BD80B582B000AF0346FB71FB7956
:101F500003F00103DBB219460B20FFF789FFFB7981
:101F60005B08DBB203F00103DBB219460C20FFF77C
:101F70007FFFFB799B08DBB203F00103DBB219465C
:101F80000D20FFF775FFFB79DB08DBB203F00103DF
:101F9000DBB219460E20FFF76BFF00BF0837BD46C6
:101FA00080BD80B582B000AF0346FB71FB791B0991
:101FB000DBB21846FFF7C6FFFFF7B8FFFB791846FC
:101FC000FFF7C0FFFFF7B2FF00BF0837BD4680BD77
:101FD00080B500AF0120FFF7E4FF0120FFF730FFDD
:101FE00000BF80BD80B500AFFFF768FF0020FFF79E
:101FF000A9FF00210820FFF73BFF0320FFF7A2FF06
:10200000FFF794FFFFF792FFFFF790FF0220FFF723
:1020100099FFFFF78BFF2820FFF7C3FF0E20FFF784
:10202000C0FF0620FFF7BDFF0120FFF7BAFF00BF8A
:1020300080BD80B584B000AF03460A46FB711346ED
:10204000BB71BB79002B03D1FB79803BFB7313E0A1
:10205000BB79012B03D1FB79403BFB730CE0BB79CF
:10206000022B03D1FB796C3BFB7305E0BB79032B9F
:1020700002D1FB792C3BFB73FB7B1846FFF791FFEA
:1020800000BF1037BD4680BD80B582B000AF0346AB
:10209000FB7101210820FFF7EBFEFB791846FFF7E3
:1020A00080FF00210820FFF7E3FE00BF0837BD4690
:1020B00080BD80B582B000AF786007E07B681B7898
:1020C0001846FFF7E1FF7B6801337B607B681B7874
:1020D000002BF3D100BF00BF0837BD4680BD000014
:1020E00080B582B000AF7860FFF772FF1348FFF74A
:1020F000E0FF01210120FFF79CFF1148FFF7D9FF06
:1021000002210120FFF795FF0E48FFF7D2FF0321C0
:102110000120FFF78EFF0C48FFF7CBFF7B68DBB297
:102120000133DBB219460020FFF783FF3E20FFF7A3
:10213000ABFF00BF0837BD4680BD00BFB8E5000853
:10214000D0E50008E0E50008F0E5000880B586B0BD
:1021500000AF786008237B6100F030FE0346FB741B
:1021600029E000F02BFE0346FB74FB7C2F2B22D9C9
:10217000FB7C392B1FD8FB7C1846FFF785FF7B695A
:10218000072B11DC0123FB600BE0FB687A681A4423
:10219000FB68013B79680B4412781A70FB680133C5
:1021A000FB60FB68082BF0DD7B680833FA7C1A7053
:1021B0007B69013B7B61FB7C3D2B02D0FB7C432B8D
:1021C000CFD1FB7C18461837BD4680BD80B590B096
:1021D00004AF00210020FFF72CFF154B1B68FB62AA
:1021E000134B5B68BB62124B9B687B62104BDB68D6
:1021F0003B62104B1B681846FEF716F902460B4669
:10220000381DCDE902233B6A01937B6A0093BB6AC8
:10221000FA6A094909F03CFE0C20FFF7C2FE3B1D9B
:102220001846FFF746FF00BF3037BD4680BD00BFF0
:102230000C0000202C00002000E60008B0B592B091
:1022400000AF01F051FA00F0AFF801F099F901F098
:10225000C7F9FEF7EDFEFFF7C5FE00F081FD00F0C7
:1022600043FF00F013F900F0DBF802F0A5FF424B4A
:102270001B68414A43F0200313603F4B1B683E4AF2
:1022800023F0100313603D4B1B683D4A82FB031291
:102290005211DB17D31A4FF47A7203FB02F2394B57
:1022A0001A604FF080431B684FF0804243F00103F7
:1022B0001360354B1B68344A43F001031360FFF78A
:1022C00085FF324B1B68FF2B0BD1314B1A683B4605
:1022D0003049184609F0DCFD3B4619462B48FFF70C
:1022E00017FD07F14003052219462848FFF750FD66
:1022F00007F14003184609F027F80246244B1B68F3
:1023000013440133224A1360214B1A6807F140033A
:102310002049184609F0BCFD07F1400319461B4847
:10232000FFF7F6FC1C4B07F124041D460FCD0FC42C
:1023300095E8070084E8070007F124030021184608
:1023400006F044FC0346154A1360154B07F10804D8
:102350001D460FCD0FC495E8070084E8070007F17C
:1023600008030021184606F031FC03460D4A1360AD
:1023700006F025FC00BFFDE70C0801400C00002022
:102380001F85EB51340000400008004000EC0008BD
:102390004C25002018E6000828E60008A8250020A3
:1023A0004CE60008AC25002080B590B000AF07F1E6
:1023B000180328220021184609F0CFFD3B1D0022FA
:1023C0001A605A609A60DA601A610223BB610123C5
:1023D000BB621023FB6200237B6307F118031846DE
:1023E00001F054FC0346002B01D000F075FC0F23D4
:1023F0007B600023BB600023FB6000233B61002364
:102400007B613B1D0021184601F0C2FE0346002BF4
:1024100001D000F061FC00BF4037BD4680BD000028
:1024200080B500AF174B184A1A60164B4FF48272F2
:102430005A60144B00229A60124B0022DA60114B52
:1024400000221A610F4B00225A610E4B4FF40072AA
:102450009A610C4B0022DA610A4B00221A62094B86
:1024600000225A62074B00229A62064B0A22DA6265
:10247000044802F037F80346002B01D000F02CFC92
:1024800000BF80BD502500200038004080B588B0D6
:1024900000AF07F1100300221A605A609A60DA60F8
:1024A0001E4B9B691D4A43F0200393611B4B9B69A4
:1024B00003F02003FB60FB68184B9B69174A43F04D
:1024C00008039361154B9B6903F00803BB60BB686D
:1024D000124B9B69114A43F0040393610F4B9B69B4
:1024E00003F004037B607B6800224FF480510C48AA
:1024F00001F0B4FB4FF480533B6101237B61002367
:10250000BB610223FB6107F110031946044801F087
:1025100021FA00BF2037BD4680BD00BF0010024039
:10252000000C014080B5A6B004AF786000F046FC16
:10253000034687F8743097F87430432B40F0A68236
:10254000964B00221A60964B1B68954A43F0010394
:102550001360944B1B68934A23F00103136000F04F
:102560002DFC034687F8873004E000F027FC034683
:1025700087F887308B4B1B6803F00103002B03D1D6
:1025800097F88730012BF0D0854B1B68844A23F0E5
:102590000103136097F887303D2B40F077820E20BF
:1025A000FFF7FFFCFFF714FD00210020FFF741FDBE
:1025B0007D48FFF77EFD002387F886304FE001213C
:1025C0000020FFF736FD0023C7F8803022E000F03E
:1025D000F5FB034687F8623097F86230012B19D07B
:1025E000724AD7F88030134497F862201A7097F82F
:1025F00062301846FFF748FDD7F88030DBB2013370
:10260000DBB201211846FFF714FDD7F88030013303
:10261000C7F88030D7F88030032BD8DD644B1A78A8
:10262000624B1B789A4215D1614B5A785F4B5B78AD
:102630009A420FD15E4B9A785C4B9B789A4209D1B3
:102640005B4BDA78594BDB789A4203D1012387F848
:10265000863004E0FFF7BCFC5648FFF72AFD97F8E8
:10266000863083F00103DBB2002BA8D10020FFF7F6
:1026700037FD0023BB6776E100F0A0FB034687F837
:102680007F30BB6F002B0CDBBB6F012B09DC97F895
:102690007F30582B05D1BB6F0133BB67B86FFFF795
:1026A0001FFDBB6F002B0CDDBB6F022B09DC97F805
:1026B0007F30252B05D1BB6F013BBB67B86FFFF7A0
:1026C0000FFD97F87F302B2B40F04D81BB6F002B17
:1026D0007CD1394A07F1580307CA03C31A80364A26
:1026E00007F14C0307CA03C31A80FFF771FC0021EE
:1026F0000020FFF79EFC3148FFF7DBFC01210020A2
:10270000FFF797FC2E48FFF7D4FC02210020FFF7CB
:1027100090FC2C48FFF7CDFC01210320FFF789FC3A
:1027200000F04CFB034687F8773007F15803184652
:10273000FFF70CFD034687F8773097F877303D2B8D
:1027400023D102210320FFF774FC07F14C03184644
:10275000FFF7FCFC034687F8773097F877303D2B7E
:1027600013D107F15803184608F0EEFD0346164A48
:10277000136007F14C03184608F0E6FD0346124AC1
:102780005360B86FFFF7ACFCEDE097F87730432B60
:10279000CBD1B86FFFF7A4FCE5E000BF242C0140CB
:1027A000002C0140102C014068E600084425002060
:1027B0000400002078E6000834E700088CE60008F2
:1027C000A0E60008A4E600081C000020BB6F012B57
:1027D00063D1B14A07F1400307CA03C31A80AE4A66
:1027E00007F1340307CA03C31A80FFF7F1FB002186
:1027F0000020FFF71EFCA948FFF75BFC0121002029
:10280000FFF717FCA648FFF754FC02210020FFF752
:1028100010FCA448FFF74DFC01210320FFF709FC41
:1028200000F0CCFA034687F8763007F140031846EB
:10283000FFF78CFC034687F8763097F876303D2B0F
:1028400023D102210320FFF7F4FB07F134031846DC
:10285000FFF77CFC034687F8763097F876303D2BFF
:1028600013D107F14003184608F06EFD03468E4A67
:10287000936007F13403184608F066FD03468A4A60
:10288000D360B86FFFF72CFC6DE097F87630432BE0
:10289000CBD1B86FFFF724FC65E0002387F87530D3
:1028A000FFF796FB00210020FFF7C3FB7F48FFF7EF
:1028B00000FC01210020FFF7BCFB4DE0764A07F148
:1028C000280307CA03C31A8000F078FA034687F882
:1028D000633007F128031846FFF738FC034687F8F2
:1028E000633097F863303D2B2ED197F82C30302B86
:1028F00016D197F82D206E4B1A7097F82E206C4B3E
:102900005A7097F82F206A4B9A7097F83020684BCE
:10291000DA70B86FFFF7E4FB012387F8753013E036
:10292000FFF756FB00210020FFF783FB6148FFF70C
:10293000C0FB01210020FFF77CFB5F48FFF7B9FBDC
:1029400002210020FFF775FB97F86330432B03D17A
:10295000B86FFFF7C5FB06E097F8753083F0010309
:10296000DBB2002BAAD197F87F303D2B7FF484AEE9
:1029700097F87F303D2B40F08780FFF729FB00213F
:102980000020FFF756FB4D48FFF793FB0121002085
:10299000FFF74FFB4A48FFF78CFB02210020FFF7AF
:1029A00048FB4848FFF785FB03210020FFF741FB68
:1029B0004548FFF77EFB04E000F000FA034687F885
:1029C0007F3097F87F30312B03D097F87F30322B50
:1029D000F2D197F87F30312B36D13C4B1B683B67E7
:1029E0003A4B5B68FB66394B9B68BB66374BDB68D1
:1029F0007B66374B1B681846FDF716FD02460B46F3
:102A000007F10C00CDE902237B6E0193BB6E0093AE
:102A1000FB6E3A6F2F4909F03BFA2F4B1A681346A9
:102A20009B0013449A00134403F1006303F57C43B5
:102A30001A4607F10C0319461046FFF769F9264BB1
:102A40001B680133244A1360174B1B681F4A13602D
:102A5000154B5B681D4A5360134B9B681B4A936080
:102A6000114BDB68194AD360114B1A781B4B1A7053
:102A70000F4B5A78194B5A700D4B9A78174B9A7026
:102A80000B4BDA78154BDA70FFF7A2FAFFF79EFBD3
:102A9000012006F0E7F849E534E700088CE6000875
:102AA000A8E60008ACE600081C000020B0E600081C
:102AB00008000020C4E60008DCE60008F4E6000890
:102AC00008E700081CE7000824E700080C000020C5
:102AD0002C00002000E6000848250020040000200B
:102AE00090B599B002AF7860FEF71EFB0346624ACC
:102AF0001360624B1B687B65604B5B683B655F4B9B
:102B00009B68FB645D4BDB68BB6407F12C00BB6C0E
:102B10000193FB6C00933B6D7A6D594909F0B8F94C
:102B2000554B1B681846FEF75DFA03467B64524B13
:102B30001C68786CFEF7B2F8034619462046FDF78C
:102B4000F7FF03464F491846FEF7FCF803461846C0
:102B5000FEF748FA03463B6407F120003B6C7A6CB1
:102B6000494909F095F907F12C03184600F080FD5A
:102B700007F12003184600F07BFD444B1A6807F16B
:102B80000C034349184609F083F9002241494248A1
:102B900004F044FC07F10C03132219463F4804F0EB
:102BA000A9FC3E4B03F58053DB6819463B4805F012
:102BB00051FB07F12C033949184605F0F9FE07F1DE
:102BC00020033649184605F0F3FE3449344805F031
:102BD000EFFE324805F00AFB324B1B680133314AE5
:102BE0001360264B5A682F4B1B689A4219D12E4B03
:102BF0001B682D4A43F0100313602B4B1B682A4AB5
:102C000023F0200313601D4B9B68284A82FB0312AC
:102C10005211DB17D31A4FF47A7203FB02F2244BE2
:102C20001A60164B5A68154BDB681A441D4B1B681B
:102C30009A421CD11C4B1B681B4A43F020031360B3
:102C4000194B1B68184A23F0100313600B4B1B68C9
:102C5000164A82FB03125211DB17D31A4FF47A7211
:102C600003FB02F2124B1A600E4B00221A604FF463
:102C70007A7005F0F7FF37E72C0000200C000020E9
:102C800040E700080000C84254E700084C25002037
:102C900060E700086CE70008E40400201815002035
:102CA00070E70008300000200C0801401F85EB5140
:102CB0003400004080B582B000AF78607B681B684C
:102CC000044A934201D100F025FD00BF0837BD46FC
:102CD00080BD00BF0004004080B400AF72B600BFEA
:102CE00000BFFDE780B483B000AF78600B46FB7097
:102CF000FB78002B0AD00D4B1B6801217A6801FA82
:102D000002F21146094A0B4313600AE0074B1B68A5
:102D100001217A6801FA02F2D2431146034A0B40BC
:102D2000136000BF0C37BD4680BC70470C0C0140DF
:102D300080B483B000AF7860084B1B6801217A68CB
:102D400001FA02F21340002B01D0012300E000231E
:102D500018460C37BD4680BC704700BF080C0140C8
:102D600080B400AF124B1B68114A43F00803136094
:102D7000104B1B680F4B00221A600E4B1B680D4A4C
:102D800043F4885343F0110313600A4B1B68094A4C
:102D900043F0084343F408031360074B1B68064ADB
:102DA00043F0F003136000BFBD4680BC704700BF16
:102DB00018100240000C01400C0C014080B500AF1F
:102DC00000210020FFF78EFF01210120FFF78AFF7D
:102DD00001210220FFF786FF01210320FFF782FF78
:102DE0000420FFF7A5FF034683F00103DBB2002BAD
:102DF0000BD000BF0420FFF79BFF034683F00103C5
:102E0000DBB2002BF6D137236BE10520FFF790FFF3
:102E1000034683F00103DBB2002B0BD000BF05207B
:102E2000FFF786FF034683F00103DBB2002BF6D1E8
:102E3000382356E10620FFF77BFF034683F00103AA
:102E4000DBB2002B0BD000BF0620FFF771FF03465B
:102E500083F00103DBB2002BF6D1392341E10720D7
:102E6000FFF766FF034683F00103DBB2002B0BD0B4
:102E700000BF0720FFF75CFF034683F00103DBB2CE
:102E8000002BF6D125232CE101210020FFF72AFF9A
:102E900000210120FFF726FF01210220FFF722FF7A
:102EA00001210320FFF71EFF0420FFF741FF034627
:102EB00083F00103DBB2002B0BD000BF0420FFF72F
:102EC00037FF034683F00103DBB2002BF6D1342336
:102ED00007E10520FFF72CFF034683F00103DBB277
:102EE000002B0BD000BF0520FFF722FF034683F025
:102EF0000103DBB2002BF6D13523F2E00620FFF709
:102F000017FF034683F00103DBB2002B0BD000BF99
:102F10000620FFF70DFF034683F00103DBB2002B11
:102F2000F6D13623DDE00720FFF702FF034683F0EA
:102F30000103DBB2002B0BD000BF0720FFF7F8FE28
:102F4000034683F00103DBB2002BF6D15823C8E01F
:102F500001210020FFF7C6FE01210120FFF7C2FE7C
:102F600000210220FFF7BEFE01210320FFF7BAFE79
:102F70000420FFF7DDFE034683F00103DBB2002BE4
:102F80000BD000BF0420FFF7D3FE034683F00103FC
:102F9000DBB2002BF6D13123A3E00520FFF7C8FEFA
:102FA000034683F00103DBB2002B0BD000BF0520EA
:102FB000FFF7BEFE034683F00103DBB2002BF6D120
:102FC00032238EE00620FFF7B3FE034683F00103B1
:102FD000DBB2002B0BD000BF0620FFF7A9FE034693
:102FE00083F00103DBB2002BF6D1332379E0072015
:102FF000FFF79EFE034683F00103DBB2002B0BD0EC
:1030000000BF0720FFF794FE034683F00103DBB205
:10301000002BF6D12D2364E001210020FFF762FE92
:1030200001210120FFF75EFE01210220FFF75AFE79
:1030300000210320FFF756FE0420FFF779FE034628
:1030400083F00103DBB2002B0BD000BF0420FFF79D
:103050006FFE034683F00103DBB2002BF6D143235E
:103060003FE00520FFF764FE034683F00103DBB277
:10307000002B0BD000BF0520FFF75AFE034683F05C
:103080000103DBB2002BF6D130232AE00620FFF744
:103090004FFE034683F00103DBB2002B0BD000BFD1
:1030A0000620FFF745FE034683F00103DBB2002B49
:1030B000F6D13D2315E00720FFF73AFE034683F0E3
:1030C0000103DBB2002B0BD000BF0720FFF730FE5F
:1030D000034683F00103DBB2002BF6D12B2300E083
:1030E0000123184680BD000080B400AF1A4B1B6856
:1030F000194A43F001031360184B1B68174A43F049
:1031000004031360164B1B68154A23F00F0313606A
:10311000134B1B68124A43F009031360114B9F22A3
:103120001A60114B40F2E7321A60104B1B680F4ACD
:1031300043F0600313600D4B1B680C4A43F0080317
:1031400013600B4B1B680A4A43F00103136000BF76
:10315000BD4680BC704700BF1C10024018100240E2
:1031600000080140280000402C00004018000040EA
:103170002000004080B584B000AF184B9B69174A0F
:1031800043F001039361154B9B6903F00103BB609E
:10319000BB68124BDB69114A43F08053D3610F4B7C
:1031A000DB6903F080537B607B6800220F216FF0A6
:1031B000010000F0A4FB0A4B5B68FB60FB6823F096
:1031C000E063FB60FB6843F00073FB60044AFB684C
:1031D000536000BF1037BD4680BD00BF00100240E5
:1031E0000000014080B588B000AF786007F110039F
:1031F00000221A605A609A60DA607B681B681C4A79
:10320000934231D11B4BDB691A4A43F48043D361AB
:10321000184BDB6903F48043FB60FB68154B9B692B
:10322000144A43F008039361124B9B6903F00803AF
:10323000BB60BB684FF420433B6102237B610323E7
:10324000FB6107F1100319460B4800F083FB4FF4B4
:1032500080433B6100237B610023BB6107F11003C6
:103260001946054800F076FB00BF2037BD4680BDFB
:103270000038004000100240000C014080B58EB0C4
:1032800000AF78600023FB620023BB62002387F855
:103290003330344BDB69334A43F00203D361314BA3
:1032A000DB6903F00203FB60FB6807F1100207F122
:1032B00014031146184601F0C7F83B6AFB62FB6A2B
:1032C000002B03D101F0ACF8786304E001F0A8F81A
:1032D00003465B007B637B6B234AA2FB03239B0CAF
:1032E000013BBB62214B224A1A60204B40F2E7327D
:1032F000DA601E4ABB6A53601C4B00221A611B4BEA
:1033000000229A60194B00229A61184801F015FDBD
:10331000034687F8333097F83330002B1BD113481E
:1033200001F064FD034687F8333097F83330002B03
:1033300011D11D2000F0FFFA7B680F2B08D8002266
:1033400079681D2000F0DBFA0A4A7B68136002E00E
:10335000012387F8333097F8333018463837BD46A5
:1033600080BD00BF0010024083DE1B43B02500205B
:10337000000400403800002080B400AF00BFFDE72B
:1033800080B400AF00BFFDE780B400AF00BFFDE731
:1033900080B400AF00BFFDE780B400AF00BFFDE721
:1033A00080B400AF00BFBD4680BC704780B500AFA1
:1033B0000C4B1B88002B05D00A4B1B88013B9AB293
:1033C000084B1A80084B1B88002B05D0064B1B8826
:1033D000013B9AB2044B1A80044801F059FD00BF2A
:1033E00080BD00BF3C0200203E020020B02500202E
:1033F00080B400AF01231846BD4680BC704780B53D
:1034000082B000AF7860396008F058FE034616229B
:103410001A604FF0FF3318460837BD4680BD80B5AF
:1034200082B000AF78604FF0FF317868FFF7E7FFB8
:1034300000BFFDE780B586B000AFF860B9607A6084
:1034400000237B610AE0AFF300800146BB685A1C91
:10345000BA60CAB21A707B6901337B617A697B6892
:103460009A42F0DB7B6818461837BD4680BD80B5B0
:1034700086B000AFF860B9607A6000237B6109E034
:10348000BB685A1CBA601B781846AFF300807B6992
:1034900001337B617A697B689A42F1DB7B6818466D
:1034A0001837BD4680BD80B483B000AF78604FF060
:1034B000FF3318460C37BD4680BC704780B483B0DC
:1034C00000AF786039603B684FF400525A600023C7
:1034D00018460C37BD4680BC704780B483B000AF3F
:1034E0007860012318460C37BD4680BC704780B415
:1034F00085B000AFF860B9607A60002318461437D1
:10350000BD4680BC7047000080B586B000AF7860D3
:10351000144A154BD31A7B617B693B61134B1B68C3
:10352000002B02D1114B124A1A60104B1A687B68AB
:1035300013443A699A4207D208F0C0FD03460C22B0
:103540001A604FF0FF3309E0084B1B68FB60074B24
:103550001A687B681344054A1360FB6818461837DD
:10356000BD4680BD0050002000040000F82500206A
:103570001835002080B400AF00BFBD4680BC704746
:1035800080B400AF114B1B68104A43F40033136042
:103590000F4B40F241321A600E4B00221A600D4B65
:1035A0001B680C4A43F4005343F0080313600A4BB2
:1035B00000221A60084B084A1B681360074B002260
:1035C0001A6000BFBD4680BC704700BF1C1002409F
:1035D000084400400C4400401044004014440040A3
:1035E00080B400AF104B1B680F4A43F00403136014
:1035F0000E4B1B680D4A23F4706313600B4B1B6862
:103600000A4A43F420631360084B1B68074A23F4FB
:1036100070431360054B1B68044A43F480431360F6
:1036200000BFBD4680BC7047181002400008014032
:1036300080B483B000AF0346FB7100BF0A4B1B6828
:1036400003F08003002BF9D0084AFB79136000BF18
:10365000054B1B6803F04003002BF9D000BF00BFEF
:103660000C37BD4680BC7047004400400444004015
:1036700080B582B000AF786006E07B685A1C7A6043
:103680001B781846FFF7D4FF7B681B78002BF4D11A
:1036900000BF00BF0837BD4680BD0000FFF76AFFCE
:1036A0000B480C490C4A002302E0D458C4500433A0
:1036B000C4188C42F9D3094A094C002301E0136075
:1036C0000432A242FBD308F0FFFCFEF7B7FD7047BF
:1036D0000000002020020020F0EB00082002002063
:1036E00014350020FEE7000080B500AF084B1B68D2
:1036F000074A43F010031360032000F0F5F80F2091
:10370000FFF7BCFDFFF736FD0023184680BD00BF64
:103710000020024080B400AF054B1B781A46054BD1
:103720001B681344034A136000BFBD4680BC70474A
:103730003C000020FC25002080B400AF024B1B6839
:103740001846BD4680BC7047FC25002080B584B07B
:1037500000AF7860FFF7F0FFB8607B68FB60FB6844
:10376000B3F1FF3F05D00A4B1B781A46FB681344A0
:10377000FB6000BFFFF7E0FF0246BB68D31AFA68A0
:103780009A42F7D800BF00BF1037BD4680BD00BFCA
:103790003C00002080B485B000AF78607B6803F007
:1037A0000703FB600C4BDB68BB60BA684FF6FF0396
:1037B0001340BB60FB681A02BB68134343F0BF634E
:1037C00043F40033BB60044ABB68D36000BF1437C6
:1037D000BD4680BC704700BF00ED00E080B400AF84
:1037E000044BDB681B0A03F007031846BD4680BC88
:1037F000704700BF00ED00E080B483B000AF034627
:10380000FB7197F90730002B0BDBFB7903F01F02EC
:10381000064997F907305B09012000FA02F241F8E6
:10382000232000BF0C37BD4680BC704700E100E09C
:1038300080B483B000AF03463960FB7197F907305D
:10384000002B0ADB3B68DAB20C4997F9073012010A
:10385000D2B20B4483F800230AE03B68DAB208498D
:10386000FB7903F00F03043B1201D2B20B441A762A
:1038700000BF0C37BD4680BC704700BF00E100E0D0
:1038800000ED00E080B489B000AFF860B9607A6004
:10389000FB6803F00703FB61FB69C3F10703042B1B
:1038A00028BF0423BB61FB690433062B02D9FB69E3
:1038B000033B00E000237B614FF0FF32BB6902FA5B
:1038C00003F3DA43BB681A407B699A404FF0FF313B
:1038D0007B6901FA03F3D9437B680B401343184615
:1038E0002437BD4680BC704780B582B000AF786099
:1038F0007868FFF74FFF00BF0837BD4680BD80B531
:1039000086B000AF0346B9607A60FB7300237B6129
:10391000FFF764FF78617A68B9687869FFF7B2FFEA
:10392000024697F90F3011461846FFF781FF00BF96
:103930001837BD4680BD80B582B000AF0346FB712D
:1039400097F907301846FFF757FF00BF0837BD4605
:1039500080BD000080B48BB000AF78603960002378
:103960007B6200233B6269E101227B6A02FA03F376
:10397000FB613B681B68FA691340BB61BA69FB696C
:103980009A4240F058813B685B689A4A93425ED005
:10399000984A934275D8984A934258D0964A93428F
:1039A0006FD8964A934252D0944A934269D8944A27
:1039B00093424CD0924A934263D8924A934246D063
:1039C000904A93425DD8122B2AD8122B59D801A2C3
:1039D00052F823F04F3A0008293A00083B3A000811
:1039E0007D3A0008833A0008833A0008833A0008C9
:1039F000833A0008833A0008833A0008833A0008B3
:103A0000833A0008833A0008833A0008833A0008A2
:103A1000833A0008833A0008313A0008453A000822
:103A2000794A934213D02CE03B68DB683B6229E083
:103A30003B68DB6804333B6224E03B68DB680833A7
:103A40003B621FE03B68DB680C333B621AE03B687B
:103A50009B68002B02D104233B6213E03B689B6808
:103A6000012B05D108233B627B68FA691A6109E0E2
:103A700008233B627B68FA695A6103E000233B62DA
:103A800000E000BFBB69FF2B01D87B6801E07B68C9
:103A900004337B61BB69FF2B02D87B6A9B0002E089
:103AA0007B6A083B9B003B617B691A680F213B697D
:103AB00001FA03F3DB431A40396A3B6901FA03F365
:103AC0001A437B691A603B685B6803F08053002BE4
:103AD00000F0B1804D4B9B694C4A43F00103936168
:103AE0004A4B9B6903F00103BB60BB68484A7B6A91
:103AF0009B08023352F82330FB607B6A03F0030318
:103B00009B000F2202FA03F3DB43FA681340FB60C9
:103B10007B68404A934213D07B683F4A93420DD062
:103B20007B683E4A934207D07B683D4A934201D16D
:103B3000032306E0042304E0022302E0012300E063
:103B400000237A6A02F0030292009340FA6813435A
:103B5000FB602F497B6A9B080233FA6841F82320F7
:103B60003B685B6803F48013002B06D02D4B9A68EA
:103B70002C49BB6913438B6006E02A4B9A68BB69EA
:103B8000DB43284913408B603B685B6803F40013F8
:103B9000002B06D0234BDA682249BB691343CB6064
:103BA00006E0204BDA68BB69DB431E491340CB605B
:103BB0003B685B6803F40033002B06D0194B5A684E
:103BC0001849BB6913434B6006E0164B5A68BB6942
:103BD000DB43144913404B603B685B6803F480335C
:103BE000002B21D00F4B1A680E49BB6913430B60A1
:103BF00021E000BF00003210000031100000221050
:103C000000002110000012100000111000100240EE
:103C10000000014000080140000C0140001001407C
:103C200000140140000401400B4B1A68BB69DB43E0
:103C3000094913400B607B6A01337B623B681A6859
:103C40007B6A22FA03F3002B7FF48EAE00BF00BF25
:103C50002C37BD4680BC70470004014080B483B05F
:103C600000AF78600B467B8013467B707B78002B1F
:103C700003D07A887B681A6103E07B881A047B682A
:103C80001A6100BF0C37BD4680BC704780B586B056
:103C900000AF78607B68002B01D1012372E27B6862
:103CA0001B6803F00103002B00F08780924B5B68D8
:103CB00003F00C03042B0CD08F4B5B6803F00C0358
:103CC000082B12D18C4B5B6803F48033B3F5803F33
:103CD0000BD1894B1B6803F40033002B6CD07B683D
:103CE0005B68002B68D101234CE27B685B68B3F50D
:103CF000803F06D1804B1B687F4A43F480331360BA
:103D00002EE07B685B68002B0CD17B4B1B687A4AEA
:103D100023F480331360784B1B68774A23F48023A5
:103D200013601DE07B685B68B3F5A02F0CD1724B6C
:103D30001B68714A43F4802313606F4B1B686E4A03
:103D400043F4803313600BE06B4B1B686A4A23F427
:103D500080331360684B1B68674A23F48023136029
:103D60007B685B68002B13D0FFF7E6FC386108E046
:103D7000FFF7E2FC02463B69D31A642B01D9032307
:103D800000E25D4B1B6803F40033002BF0D014E01D
:103D9000FFF7D2FC386108E0FFF7CEFC02463B6932
:103DA000D31A642B01D90323ECE1534B1B6803F4B2
:103DB0000033002BF0D100E000BF7B681B6803F0EC
:103DC0000203002B63D04C4B5B6803F00C03002B09
:103DD0000BD0494B5B6803F00C03082B1CD1464BFE
:103DE0005B6803F48033002B16D1434B1B6803F050
:103DF0000203002B05D07B681B69012B01D0012336
:103E0000C0E13D4B1B6823F0F8027B685B69DB0077
:103E1000394913430B603AE07B681B69002B20D0C3
:103E2000364B01221A60FFF787FC386108E0FFF784
:103E300083FC02463B69D31A022B01D90323A1E17B
:103E40002D4B1B6803F00203002BF0D02A4B1B689C
:103E500023F0F8027B685B69DB00274913430B60A2
:103E600015E0264B00221A60FFF766FC386108E077
:103E7000FFF762FC02463B69D31A022B01D90323E8
:103E800080E11D4B1B6803F00203002BF0D17B681F
:103E90001B6803F00803002B3AD07B689B69002B5A
:103EA00019D0174B01221A60FFF746FC386108E071
:103EB000FFF742FC02463B69D31A022B01D90323C8
:103EC00060E10D4B5B6A03F00203002BF0D0012090
:103ED00000F0EAFA1CE00A4B00221A60FFF72CFC03
:103EE00038610FE0FFF728FC02463B69D31A022B2A
:103EF00008D9032346E100BF0010024000004242FF
:103F000080044242924B5B6A03F00203002BE9D12A
:103F10007B681B6803F00403002B00F0A6800023DD
:103F2000FB758B4BDB6903F08053002B0DD1884B65
:103F3000DB69874A43F08053D361854BDB6903F02B
:103F40008053BB60BB680123FB75824B1B6803F485
:103F50008073002B18D17F4B1B687E4A43F480731B
:103F60001360FFF7E9FB386108E0FFF7E5FB024665
:103F70003B69D31A642B01D9032303E1754B1B68FA
:103F800003F48073002BF0D07B68DB68012B06D133
:103F90006F4B1B6A6E4A43F0010313622DE07B688E
:103FA000DB68002B0CD16A4B1B6A694A23F00103C2
:103FB0001362674B1B6A664A23F0040313621CE01A
:103FC0007B68DB68052B0CD1614B1B6A604A43F0B0
:103FD000040313625E4B1B6A5D4A43F001031362E4
:103FE0000BE05B4B1B6A5A4A23F001031362584BE8
:103FF0001B6A574A23F0040313627B68DB68002BBB
:1040000015D0FFF799FB38610AE0FFF795FB0246F0
:104010003B69D31A41F28832934201D90323B1E0BC
:104020004B4B1B6A03F00203002BEED014E0FFF7AA
:1040300083FB38610AE0FFF77FFB02463B69D31A36
:1040400041F28832934201D903239BE0404B1B6A23
:1040500003F00203002BEED1FB7D012B05D13C4B7D
:10406000DB693B4A23F08053D3617B68DB69002B1B
:1040700000F08780364B5B6803F00C03082B61D09F
:104080007B68DB69022B46D1334B00221A60FFF7B5
:1040900053FB386108E0FFF74FFB02463B69D31A38
:1040A000022B01D903236DE0294B1B6803F0007339
:1040B000002BF0D17B681B6AB3F5803F08D1244BFD
:1040C0005B6823F400327B689B68214913434B6093
:1040D0001F4B5B6823F474127B68196A7B685B6A08
:1040E0000B431B4913434B601B4B01221A60FFF724
:1040F00023FB386108E0FFF71FFB02463B69D31A38
:10410000022B01D903233DE0114B1B6803F0007320
:10411000002BF0D035E0104B00221A60FFF70CFBAB
:10412000386108E0FFF708FB02463B69D31A022B0F
:1041300001D9032326E0064B1B6803F00073002B14
:10414000F0D11EE07B68DB69012B07D1012319E068
:104150000010024000700040600042420B4B5B6860
:10416000FB60FB6803F480327B681B6A9A4206D1CD
:10417000FB6803F470127B685B6A9A4201D00123EA
:1041800000E0002318461837BD4680BD00100240ED
:1041900080B584B000AF786039607B68002B01D1B6
:1041A0000123D0E06A4B1B6803F007033A689A4288
:1041B00010D9674B1B6823F0070265493B6813431E
:1041C0000B60634B1B6803F007033A689A4201D007
:1041D0000123B8E07B681B6803F00203002B20D0AA
:1041E0007B681B6803F00403002B05D0594B5B6808
:1041F000584A43F4E06353607B681B6803F008038C
:10420000002B05D0534B5B68524A43F46053536014
:10421000504B5B6823F0F0027B689B684D49134369
:104220004B607B681B6803F00103002B40D07B6868
:104230005B68012B07D1474B1B6803F40033002B4D
:1042400015D101237FE07B685B68022B07D1414BCE
:104250001B6803F00073002B09D1012373E03D4B71
:104260001B6803F00203002B01D101236BE0394BE3
:104270005B6823F003027B685B68364913434B603D
:10428000FFF75AFAF8600AE0FFF756FA0246FB68B1
:10429000D31A41F28832934201D9032353E02D4BC4
:1042A0005B6803F00C027B685B689B009A42EBD171
:1042B000274B1B6803F007033A689A4210D2244B3D
:1042C0001B6823F0070222493B6813430B60204B15
:1042D0001B6803F007033A689A4201D0012332E0D9
:1042E0007B681B6803F00403002B08D0194B5B6844
:1042F00023F4E0627B68DB68164913434B607B68FC
:104300001B6803F00803002B09D0124B5B6823F4F1
:1043100060527B681B69DB000E4913434B6000F061
:1043200021F802460B4B5B681B0903F00F030A4997
:10433000CB5C22FA03F3094A1360094B1B68184649
:10434000FEF79CFF002318461037BD4680BD00BF16
:104350000020024000100240C0E7000834000020A6
:104360003800002080B487B000AF0023FB6000233A
:10437000BB6000237B6100237B6000233B611E4BFD
:104380005B68FB60FB6803F00C03042B02D0082B76
:1043900003D027E0194B3B6127E0FB689B0C03F03F
:1043A0000F03174AD35C7B60FB6803F48033002B58
:1043B00010D0114B5B685B0C03F00103114AD35C16
:1043C000BB607B680D4A03FB02F2BB68B2FBF3F3F0
:1043D0007B6104E07B680C4A02FB03F37B617B6931
:1043E0003B6102E0054B3B6100BF3B6918461C374F
:1043F000BD4680BC704700BF0010024000127A002A
:10440000D8E70008E8E7000800093D0080B400AFE5
:10441000024B1B681846BD4680BC70473400002024
:1044200080B500AFFFF7F2FF0246054B5B681B0A41
:1044300003F007030349CB5C22FA03F3184680BD5F
:1044400000100240D0E7000880B483B000AF78606D
:1044500039607B680F221A60114B5B6803F003021E
:104460007B685A600E4B5B6803F0F0027B689A60D1
:104470000B4B5B6803F4E0627B68DA60084B5B68B7
:10448000DB0803F4E0627B681A61064B1B6803F0EB
:1044900007023B681A6000BF0C37BD4680BC7047FE
:1044A000001002400020024080B485B000AF786068
:1044B0000A4B1B680A4AA2FB03235B0A7A6802FBC9
:1044C00003F3FB6000BFFB685A1EFA60002BF9D1B2
:1044D00000BF00BF1437BD4680BC704734000020C9
:1044E000D34D621080B582B000AF78607B68002B3E
:1044F00001D1012376E07B685B6A002B08D17B68E1
:104500005B68B3F5827F09D07B680022DA6105E041
:104510007B6800221A617B6800225A617B68002256
:104520009A627B6893F85130DBB2002B06D17B682E
:10453000002283F850207868FEF754FE7B68022240
:1045400083F851207B681B681A687B681B6822F01F
:1045500040021A607B685B6803F482727B689B6828
:1045600003F404431A437B68DB6803F400631A43D3
:104570007B681B6903F002031A437B685B6903F0E5
:1045800001031A437B689B6903F400731A437B6839
:10459000DB6903F038031A437B681B6A03F080036E
:1045A00042EA03017B689B6A03F400527B681B6844
:1045B0000A431A607B689B691A0C7B681B6802F0CF
:1045C00004025A607B681B68DA697B681B6822F406
:1045D0000062DA617B6800225A657B68012283F8F9
:1045E0005120002318460837BD4680BD80B588B0ED
:1045F00000AFF860B9603B601346FB80FFF79CF8A2
:10460000F861FB887B83FB6893F85130DBB2012BA8
:1046100001D002232AE1BB68002B02D0FB88002BCB
:1046200001D1012322E1FB6893F85030012B01D125
:1046300002231BE1FB68012283F85020FB68032260
:1046400083F85120FB6800225A65FB68BA681A6338
:10465000FB68FA889A86FB68FA88DA86FB6800228B
:104660009A63FB6800229A87FB680022DA87FB685E
:1046700000225A64FB6800221A64FB689B68B3F549
:10468000004F0FD1FB681B681A68FB681B6822F09B
:1046900040021A60FB681B681A68FB681B6842F4DA
:1046A00080421A60FB681B681B6803F04003402BC4
:1046B00007D0FB681B681A68FB681B6842F0400261
:1046C0001A60FB68DB68B3F5006F52D1FB685B686A
:1046D000002B02D07B8B012B45D1FB681B6B1A880A
:1046E000FB681B68DA60FB681B6B9A1CFB681A632B
:1046F000FB68DB8E9BB2013B9AB2FB68DA8632E044
:10470000FB681B689B6803F00203022B12D1FB6855
:104710001B6B1A88FB681B68DA60FB681B6B9A1CB2
:10472000FB681A63FB68DB8E9BB2013B9AB2FB68A5
:10473000DA8618E0FFF700F80246FB69D31A3A68F8
:104740009A4203D83B68B3F1FF3F02D13B68002B8C
:1047500009D1FB68012283F85120FB68002283F80D
:104760005020032382E0FB68DB8E9BB2002BC7D175
:1047700053E0FB685B68002B02D07B8B012B47D199
:10478000FB681A6BFB681B680C3312781A70FB68A5
:104790001B6B5A1CFB681A63FB68DB8E9BB2013BE8
:1047A0009AB2FB68DA8633E0FB681B689B6803F00B
:1047B0000203022B13D1FB681A6BFB681B680C33D6
:1047C00012781A70FB681B6B5A1CFB681A63FB6833
:1047D000DB8E9BB2013B9AB2FB68DA8618E0FEF7EB
:1047E000ABFF0246FB69D31A3A689A4203D83B688A
:1047F000B3F1FF3F02D13B68002B09D1FB680122D6
:1048000083F85120FB68002283F8502003232DE019
:10481000FB68DB8E9BB2002BC6D1FA693968F86859
:1048200000F05AFA0346002B02D0FB6820225A659A
:10483000FB689B68002B0AD100237B61FB681B6827
:10484000DB687B61FB681B689B687B617B69FB683D
:10485000012283F85120FB68002283F85020FB6876
:104860005B6D002B01D0012300E0002318462037A8
:10487000BD4680BD80B58AB000AFF860B9607A608F
:104880007B8001237B62FEF757FF3862FB6893F859
:104890005130FB77FB685B68BB617B88FB82FB7FE9
:1048A000012B0CD0BB69B3F5827F06D1FB689B68F6
:1048B000002B02D1FB7F042B01D002237FE1BB68D8
:1048C000002B05D07B68002B02D07B88002B01D108
:1048D000012374E1FB6893F85030012B01D10223CE
:1048E0006DE1FB68012283F85020FB6893F851309A
:1048F000DBB2042B03D0FB68052283F85120FB6850
:1049000000225A65FB687A689A63FB687A88DA87BE
:10491000FB687A889A87FB68BA681A63FB687A88AA
:10492000DA86FB687A889A86FB6800221A64FB683C
:1049300000225A64FB681B681B6803F04003402B8D
:1049400007D0FB681B681A68FB681B6842F04002CE
:104950001A60FB68DB68B3F5006F7ED1FB685B68AB
:10496000002B02D0FB8A012B6CD1FB681B6B1A88D1
:10497000FB681B68DA60FB681B6B9A1CFB681A6398
:10498000FB68DB8E9BB2013B9AB2FB68DA8659E08A
:10499000FB681B689B6803F00203022B1BD1FB68BA
:1049A000DB8E9BB2002B16D07B6A012B13D1FB68E8
:1049B0001B6B1A88FB681B68DA60FB681B6B9A1C10
:1049C000FB681A63FB68DB8E9BB2013B9AB2FB6803
:1049D000DA8600237B62FB681B689B6803F0010397
:1049E000012B19D1FB68DB8F9BB2002B14D0FB6825
:1049F0001B68DA68FB689B6B92B21A80FB689B6B42
:104A00009A1CFB689A63FB68DB8F9BB2013B9AB2EE
:104A1000FB68DA8701237B62FEF78EFE02463B6A63
:104A2000D31A3A6B9A420DD83B6BB3F1FF3F09D0D2
:104A3000FB68012283F85120FB68002283F8502094
:104A40000323BCE0FB68DB8E9BB2002BA0D1FB688C
:104A5000DB8F9BB2002B9BD182E0FB685B68002B55
:104A600002D0FB8A012B71D1FB681A6BFB681B68B3
:104A70000C3312781A70FB681B6B5A1CFB681A63A4
:104A8000FB68DB8E9BB2013B9AB2FB68DA865DE085
:104A9000FB681B689B6803F00203022B1CD1FB68B8
:104AA000DB8E9BB2002B17D07B6A012B14D1FB68E5
:104AB0001A6BFB681B680C3312781A70FB681B6B4F
:104AC0005A1CFB681A63FB68DB8E9BB2013B9AB2EF
:104AD000FB68DA8600237B62FB681B689B6803F037
:104AE0000103012B19D1FB68DB8F9BB2002B14D083
:104AF000FB681B68DA68FB689B6BD2B21A70FB68B4
:104B00009B6B5A1CFB689A63FB68DB8F9BB2013B73
:104B10009AB2FB68DA8701237B62FEF70DFE02463C
:104B20003B6AD31A3A6B9A4203D83B6BB3F1FF3F0F
:104B300002D13B6B002B09D1FB68012283F8512085
:104B4000FB68002283F85020032338E0FB68DB8EEB
:104B50009BB2002B9CD1FB68DB8F9BB2002B97D1C3
:104B60003A6A396BF86800F0B7F80346002B08D0B2
:104B7000FB6820225A65FB68002283F8502001233D
:104B80001DE0FB689B68002B0AD100233B61FB689A
:104B90001B68DB683B61FB681B689B683B613B698A
:104BA000FB68012283F85120FB68002283F8502023
:104BB000FB685B6D002B01D0012300E00023184649
:104BC0002837BD4680BD000080B588B000AFF860D2
:104BD000B9603B601346FB71FEF7AEFD0246BB6A4F
:104BE0009B1A3A681344FB61FEF7A6FDB861394B86
:104BF0001B685B011B0DFA6902FB03F37B6154E048
:104C00003B68B3F1FF3F50D0FEF796FD0246BB690B
:104C1000D31AFA699A4202D9FB69002B3DD1FB688D
:104C20001B685A68FB681B6822F0E0025A60FB6848
:104C30005B68B3F5827F11D1FB689B68B3F5004FC9
:104C400004D0FB689B68B3F5806F07D1FB681B68D5
:104C50001A68FB681B6822F040021A60FB689B6AB6
:104C6000B3F5005F0FD1FB681B681A68FB681B680F
:104C700022F400521A60FB681B681A68FB681B6804
:104C800042F400521A60FB68012283F85120FB684D
:104C9000002283F85020032317E07B69002B01D109
:104CA0000023FB617B69013B7B61FB681B689A68A1
:104CB000BB681340BA689A420CBF01230023DBB2E1
:104CC0001A46FB799A429BD1002318462037BD46ED
:104CD00080BD00BF3400002080B586B002AFF86010
:104CE000B9607A607B680093BB6801220221F86892
:104CF000FFF76AFF0346002B07D0FB685B6D43F0AC
:104D00002002FB685A65032313E07B680093BB68AD
:104D100000228021F868FFF757FF0346002B07D0D9
:104D2000FB685B6D43F02002FB685A65032300E0DB
:104D3000002318461037BD4680BD80B582B000AF55
:104D400078607B68002B01D1012341E07B6893F8F8
:104D50003D30DBB2002B06D17B68002283F83C207B
:104D6000786800F039F87B68022283F83D207B6880
:104D70001A687B6804331946104600F09DF97B6879
:104D8000012283F846207B68012283F83E207B685D
:104D9000012283F83F207B68012283F840207B6852
:104DA000012283F841207B68012283F842207B683E
:104DB000012283F843207B68012283F844207B682A
:104DC000012283F845207B68012283F83D200023DF
:104DD00018460837BD4680BD80B483B000AF786008
:104DE00000BF0C37BD4680BC7047000080B485B062
:104DF00000AF78607B6893F83D30DBB2012B01D0C7
:104E000001233AE07B68022283F83D207B681B681F
:104E1000DA687B681B6842F00102DA607B681B6815
:104E2000184A93420ED07B681B68B3F1804F09D0BB
:104E30007B681B68144A934204D07B681B68134A42
:104E4000934211D17B681B689B6803F00703FB60EA
:104E5000FB68062B10D07B681B681A687B681B6890
:104E600042F001021A6007E07B681B681A687B68E1
:104E70001B6842F001021A60002318461437BD4631
:104E800080BC7047002C0140000400400008004036
:104E900080B584B000AF78607B681B68DB68FB601E
:104EA0007B681B681B69BB60BB6803F00203002BB7
:104EB00020D0FB6803F00203002B1BD07B681B682B
:104EC0006FF002021A617B6801221A777B681B6807
:104ED0009B6903F00303002B03D0786800F0D1F83E
:104EE00005E0786800F0C4F8786800F0D3F87B68D3
:104EF00000221A77BB6803F00403002B20D0FB6864
:104F000003F00403002B1BD07B681B686FF00402C6
:104F10001A617B6802221A777B681B689B6903F41D
:104F20004073002B03D0786800F0ABF805E0786898
:104F300000F09EF8786800F0ADF87B6800221A77E0
:104F4000BB6803F00803002B20D0FB6803F00803C4
:104F5000002B1BD07B681B686FF008021A617B680E
:104F600004221A777B681B68DB6903F00303002BBC
:104F700003D0786800F085F805E0786800F078F8EC
:104F8000786800F087F87B6800221A77BB6803F026
:104F90001003002B20D0FB6803F01003002B1BD064
:104FA0007B681B686FF010021A617B6808221A7711
:104FB0007B681B68DB6903F44073002B03D07868BF
:104FC00000F05FF805E0786800F052F8786800F0CB
:104FD00061F87B6800221A77BB6803F00103002B9D
:104FE0000CD0FB6803F00103002B07D07B681B6823
:104FF0006FF001021A617868FDF75CFEBB6803F090
:105000008003002B0CD0FB6803F08003002B07D03B
:105010007B681B686FF080021A61786800F0C3F843
:10502000BB6803F04003002B0CD0FB6803F0400387
:10503000002B07D07B681B686FF040021A6178680C
:1050400000F031F8BB6803F02003002B0CD0FB68A4
:1050500003F02003002B07D07B681B686FF0200251
:105060001A61786800F096F800BF1037BD4680BD21
:1050700080B483B000AF786000BF0C37BD4680BC01
:10508000704780B483B000AF786000BF0C37BD4676
:1050900080BC704780B483B000AF786000BF0C372D
:1050A000BD4680BC704780B483B000AF786000BF5D
:1050B0000C37BD4680BC704780B485B000AF7860C7
:1050C00039607B681B68FB607B682F4A93420BD07A
:1050D0007B68B3F1804F07D07B682C4A934203D0A2
:1050E0007B682B4A934208D1FB6823F07003FB6076
:1050F0003B685B68FA681343FB607B68224A934213
:105100000BD07B68B3F1804F07D07B681F4A934276
:1051100003D07B681E4A934208D1FB6823F4407396
:10512000FB603B68DB68FA681343FB60FB6823F0B5
:1051300080023B685B691343FB607B68FA681A6016
:105140003B689A687B68DA623B681A687B689A6297
:105150007B680D4A934203D13B681A697B681A63E6
:105160007B6801225A617B681B6903F00103002BF5
:1051700005D07B681B6923F001027B681A6100BFC0
:105180001437BD4680BC7047002C0140000400402D
:105190000008004080B483B000AF786000BF0C37D7
:1051A000BD4680BC704780B483B000AF786000BF5C
:1051B0000C37BD4680BC704780B500AF0449054838
:1051C00003F07AFC03461A46034B1A7000BF80BDF9
:1051D00004260020400000200026002080B400AFFC
:1051E00000231846BD4680BC704780B582B000AF32
:1051F0000346FB71FB791846FCF7EAF903461846AB
:105200000837BD4680BD80B582B000AF0346FB7154
:10521000FB791846FCF7C2FA034618460837BD4624
:1052200080BD80B584B000AFB9607A603B60034652
:10523000FB73F87B3B687A68B968FCF7C3FA0346EE
:1052400018461037BD4680BD80B584B000AFB96048
:105250007A603B600346FB73F87B3B687A68B96809
:10526000FCF71AFB034618461037BD4680BD80B5D3
:1052700082B000AF03463A60FB710B46BB71B9794F
:10528000FB793A681846FCF78BFB0346184608374B
:10529000BD4680BD80B584B000AF0346FB71FB798D
:1052A000084A9B0013445B685B68FA7905490A4425
:1052B000127A104698470346FB73FB7B184610375B
:1052C000BD4680BD2826002080B584B000AF0346CF
:1052D000FB710023FB73FB790D4AD35C002B11D1CA
:1052E000FB790B4A0121D154FB79094A9B001344F5
:1052F0005B681B68FA7906490A44127A1046984797
:105300000346FB73FB7B18461037BD4680BD00BFCC
:105310002826002090B587B000AFB9607A603B6066
:105320000346FB73FB7B0A4A9B0013445B689C6843
:10533000FB7B074A1344187A3B687A68B968A04730
:105340000346FB75FB7D18461C37BD4690BD00BF6C
:105350002826002090B587B000AFB9607A603B6026
:105360000346FB73FB7B0A4A9B0013445B68DC68C3
:10537000FB7B074A1344187A3B687A68B968A047F0
:105380000346FB75FB7D18461C37BD4690BD00BF2C
:105390002826002080B584B000AF03463A60FB7138
:1053A0000B46BB71FB79094A9B0013445B681B6980
:1053B000FA7906490A44107AB9793A689847034657
:1053C000FB73FB7B18461037BD4680BD28260020A6
:1053D00080B487B000AFF860B9607A60FB687B6129
:1053E000BB683B6107E03A69531C3B617B69591C10
:1053F000796112781A707B685A1E7A60002BF2D19C
:1054000000BF00BF1C37BD4680BC704780B487B06A
:1054100000AFF860B9607A60FB687B6105E07B698A
:105420005A1C7A61BA68D2B21A707B685A1E7A60C6
:10543000002BF4D100BF00BF1C37BD4680BC7047B5
:1054400080B489B000AFF860B9607A60FB68FB6136
:10545000BB68BB6100237B6100BF7B685A1E7A601A
:10546000002B0DD0FB695A1CFA611B781946BB69E9
:105470005A1CBA611B78CB1A7B617B69002BECD07C
:105480007B6918462437BD4680BC704780B483B022
:1054900000AF7860396002E07B6801337B607B6835
:1054A0001B78002B05D07B681B781A463B6893421B
:1054B000F2D17B681B7818460C37BD4680BC70471C
:1054C00080B582B000AF78607B6803F58053DB68FD
:1054D000184603F02CFB034618460837BD4680BD2E
:1054E00080B582B000AF78600B46FB707B68002B04
:1054F00012D0FB780C2B0FD0FB780B2B0CD0FB7849
:10550000092B09D0FB780F2B06D07B6803F580535D
:10551000DB68184603F020FB00BF0837BD4680BD9E
:1055200080B485B000AF786039600023BB60BB6891
:10553000FB603BE03149FA6813465B0013449B0073
:105540000B441B68002B2CD02C49FA6813465B00D7
:1055500013449B000B441A687B6803F580531B6857
:105560009A4220D12549FA6813465B0013449B00F8
:105570000B4404331A687B6803F580539B689A4296
:1055800011D11E49FA6813465B0013449B000B447B
:1055900008331A887B6803F58053DB889A4202D16E
:1055A00007E00123BB60FB680133FB60FB68012B54
:1055B000C0D9FB68022B09D1BB68002B02D13B6824
:1055C000022B01D1002313E0122311E03B68002BD2
:1055D0000BD10A49FA6813465B0013449B000B4445
:1055E0000A331B88B3F5807F01D1102300E000232C
:1055F00018461437BD4680BC704700BF10260020F7
:1056000080B483B000AF00237B6002E07B6801338D
:105610007B607B68012B09D80A497A6813465B00D6
:1056200013449B000B441B68002BEFD17B68022BBB
:1056300014BF01230023DBB218460C37BD4680BCE3
:10564000704700BF1026002080B485B000AF78609E
:1056500039600023FB602EE05849FA6813465B006E
:1056600013449B000B441A687B6803F580531B6846
:105670009A421DD15149FA6813465B0013449B00BE
:105680000B4404331A687B6803F580539B689A4285
:105690000ED14A49FA6813465B0013449B000B4441
:1056A00008331A887B6803F58053DB889A4206D05A
:1056B000FB680133FB60FB68012BCDD900E000BF24
:1056C000FB68022B48D10023FB6002E0FB6801333A
:1056D000FB60FB68012B09D83849FA6813465B0068
:1056E00013449B000B441B68002BEFD1FB68022B7B
:1056F00001D100235DE07B6803F5805319682F48D2
:10570000FA6813465B0013449B00034419607B68EE
:1057100003F5805399682948FA6813465B001344DF
:105720009B000344043319607B6803F58053D888D9
:105730002249FA6813465B0013449B000B4408336C
:1057400002461A801D49FA6813465B0013449B0009
:105750000B440A3300221A803B68002B0CD01749F7
:10576000FA6813465B0013449B000B440A331B8802
:10577000002B01D000231CE03B68002B0BD10F490C
:10578000FA6813465B0013449B000B440A331B88E2
:10579000013399B201E04FF480710848FA6813466A
:1057A0005B0013449B0003440A330A461A80FB68DB
:1057B000013318461437BD4680BC704710260020C0
:1057C00080B485B000AF78607B68013B7B607B680C
:1057D000012B2ED81B497A6813465B0013449B00AB
:1057E0000B440A331B88FB81FB89B3F5807F01D111
:1057F0000023FB81FB89002B02D0FB89013BFB814D
:1058000010497A6813465B0013449B000B440A332B
:10581000FA891A80FB89002B08D10A497A68134655
:105820005B0013449B000B4400221A6000237B732F
:1058300001E002237B737B7B18461437BD4680BC96
:10584000704700BF1026002080B485B000AF78609C
:105850000023FB6016E01049FA6813465B0013440E
:105860009B000B441B687A689A4208D10A49FA687F
:1058700013465B0013449B000B4400221A60FB6834
:105880000133FB60FB68012BE5D900BF00BF143773
:10589000BD4680BC704700BF1026002080B586B092
:1058A00000AF78600023FB737B6803F580531B799E
:1058B000002B40D07B6803F580531B6B7B617B68BA
:1058C00003F580535878796801237A69FFF742FD20
:1058D0000346002B02D00123FB732CE07B6803F509
:1058E000805300221A717B6803F580535B6A7A69E2
:1058F000D21A7B6803F58053DB699A421BD27B681E
:1059000003F58053DB783B6112E07B6803F580533D
:10591000DB697A6913447B617B6803F580535878AF
:10592000796801237A69FFF715FD3B69013B3B610B
:105930003B69012BE9D8FB7B18461837BD4680BD73
:1059400080B584B000AF786039600023FB737B685A
:1059500003F580531B6B3A689A421ED07868FFF7B4
:105960009DFF0346FB73FB7B002B16D17B6803F581
:1059700080535878796801233A68FFF7CBFC0346D7
:10598000002B04D04FF0FF333B600123FB737B6897
:1059900003F580531A463B681363FB7B18461037A8
:1059A000BD4680BD80B584B000AF78607868FFF7F1
:1059B00075FF0346FB73FB7B002B40F0AD807B68DB
:1059C00003F580531B78032B40F098807B6803F528
:1059D00080535B79012B40F0918078687B6803F5F8
:1059E00080535B891A460021FFF710FD7B68552222
:1059F00083F8FE217B68AA2283F8FF217B6852226C
:105A00001A707B6852225A707B6861229A707B6898
:105A10004122DA707B68722283F8E4217B6872226B
:105A200083F8E5217B68412283F8E6217B686122C7
:105A300083F8E7217B6803F580535B69DAB27B6802
:105A400083F8E8217B6803F580535B699BB21B0AEE
:105A50009BB2DAB27B6883F8E9217B6803F5805357
:105A60005B691B0CDAB27B6883F8EA217B6803F57B
:105A700080535B691B0EDAB27B6883F8EB217B688D
:105A800003F580531B69DAB27B6883F8EC217B68ED
:105A900003F580531B699BB21B0A9BB2DAB27B6889
:105AA00083F8ED217B6803F580531B691B0CDAB288
:105AB0007B6883F8EE217B6803F580531B691B0E1E
:105AC000DAB27B6883F8EF217B6803F580531B6AA9
:105AD00001337A6802F5805213637B6803F58053C3
